{
  "contractName": "Election",
  "abi": [
    {
      "inputs": [],
      "payable": false,
      "stateMutability": "nonpayable",
      "type": "constructor"
    },
    {
      "constant": true,
      "inputs": [
        {
          "internalType": "uint256",
          "name": "",
          "type": "uint256"
        }
      ],
      "name": "candidates",
      "outputs": [
        {
          "internalType": "uint256",
          "name": "id",
          "type": "uint256"
        },
        {
          "internalType": "string",
          "name": "name",
          "type": "string"
        },
        {
          "internalType": "uint256",
          "name": "voteCount",
          "type": "uint256"
        }
      ],
      "payable": false,
      "stateMutability": "view",
      "type": "function"
    },
    {
      "constant": true,
      "inputs": [],
      "name": "candidatesCount",
      "outputs": [
        {
          "internalType": "uint256",
          "name": "",
          "type": "uint256"
        }
      ],
      "payable": false,
      "stateMutability": "view",
      "type": "function"
    },
    {
      "constant": true,
      "inputs": [
        {
          "internalType": "address",
          "name": "",
          "type": "address"
        }
      ],
      "name": "voters",
      "outputs": [
        {
          "internalType": "bool",
          "name": "",
          "type": "bool"
        }
      ],
      "payable": false,
      "stateMutability": "view",
      "type": "function"
    }
  ],
  "bytecode": "0x608060405234801561001057600080fd5b506100556040518060400160405280600b81526020017f43616e646964617465203100000000000000000000000000000000000000000081525061012660201b60201c565b6100996040518060400160405280600b81526020017f43616e646964617465203200000000000000000000000000000000000000000081525061012660201b60201c565b6100dd6040518060400160405280600b81526020017f43616e646964617465203300000000000000000000000000000000000000000081525061012660201b60201c565b6101216040518060400160405280600b81526020017f43616e646964617465203400000000000000000000000000000000000000000081525061012660201b60201c565b610247565b6002600081548092919060010191905055506040518060600160405280600254815260200182815260200160008152506001600060025481526020019081526020016000206000820151816000015560208201518160010190805190602001906101919291906101a2565b506040820151816002015590505050565b828054600181600116156101000203166002900490600052602060002090601f016020900481019282601f106101e357805160ff1916838001178555610211565b82800160010185558215610211579182015b828111156102105782518255916020019190600101906101f5565b5b50905061021e9190610222565b5090565b61024491905b80821115610240576000816000905550600101610228565b5090565b90565b610292806102566000396000f3fe608060405234801561001057600080fd5b50600436106100415760003560e01c80632d35a8a2146100465780633477ee2e14610064578063a3ec138d14610119575b600080fd5b61004e610175565b6040518082815260200191505060405180910390f35b6100906004803603602081101561007a57600080fd5b810190808035906020019092919050505061017b565b6040518084815260200180602001838152602001828103825284818151815260200191508051906020019080838360005b838110156100dc5780820151818401526020810190506100c1565b50505050905090810190601f1680156101095780820380516001836020036101000a031916815260200191505b5094505050505060405180910390f35b61015b6004803603602081101561012f57600080fd5b81019080803573ffffffffffffffffffffffffffffffffffffffff16906020019092919050505061023d565b604051808215151515815260200191505060405180910390f35b60025481565b6001602052806000526040600020600091509050806000015490806001018054600181600116156101000203166002900480601f01602080910402602001604051908101604052809291908181526020018280546001816001161561010002031660029004801561022d5780601f106102025761010080835404028352916020019161022d565b820191906000526020600020905b81548152906001019060200180831161021057829003601f168201915b5050505050908060020154905083565b60006020528060005260406000206000915054906101000a900460ff168156fea265627a7a72315820aca330f1733b39f9c5e545f7583ec681af82bd66d0b117037a7dcec28b2a6b9064736f6c63430005100032",
  "source": "pragma solidity ^0.5.0;\n\ncontract Election {\n    // Model a Candidate\n    struct Candidate {\n        uint id;\n        string name;\n        uint voteCount;\n    }\n\n    // Store accounts that have voted\n    mapping(address => bool) public voters;\n    // Store Candidates\n    // Fetch Candidate\n    mapping(uint => Candidate) public candidates;\n    // Store Candidates Count\n    uint public candidatesCount;\n\n    // // voted event\n    // event votedEvent (\n    //     uint indexed _candidateId\n    // );\n\n    function addCandidate (string memory _name) private {\n        candidatesCount ++;\n        candidates[candidatesCount] = Candidate(candidatesCount, _name, 0);\n    }\n\n    constructor () public {\n        addCandidate(\"Candidate 1\");\n        addCandidate(\"Candidate 2\");\n        addCandidate(\"Candidate 3\");\n        addCandidate(\"Candidate 4\");\n    }\n\n\n    // function vote (uint _candidateId) public {\n    //     // require that they haven't voted before\n    //     require(!voters[msg.sender]);\n    //\n    //     // require a valid candidate\n    //     require(_candidateId > 0 && _candidateId <= candidatesCount);\n    //\n    //     // record that voter has voted\n    //     voters[msg.sender] = true;\n    //\n    //     // update candidate vote Count\n    //     candidates[_candidateId].voteCount ++;\n    //\n    //     // trigger voted event\n    //     emit votedEvent(_candidateId);\n    // }\n}\n",
  "sourcePath": "/Users/ayser/Desktop/Courses- FULL/APS 1050 - Blockchain Technologies/election_dapp/contracts/Election.sol",
  "compiler": {
    "name": "solc",
    "version": "0.5.16+commit.9c3226ce.Emscripten.clang"
  },
  "schemaVersion": "3.3.4",
  "updatedAt": "2021-04-20T00:27:54.926Z",
  "networkType": "ethereum",
  "devdoc": {
    "methods": {}
  },
  "userdoc": {
    "methods": {}
  }
}