{
  "contractName": "Election",
  "abi": [
    {
      "inputs": [],
      "payable": false,
      "stateMutability": "nonpayable",
      "type": "constructor"
    },
    {
      "anonymous": false,
      "inputs": [
        {
          "indexed": true,
          "internalType": "uint256",
          "name": "_candidateId",
          "type": "uint256"
        }
      ],
      "name": "votedEvent",
      "type": "event"
    },
    {
      "constant": true,
      "inputs": [
        {
          "internalType": "uint256",
          "name": "",
          "type": "uint256"
        }
      ],
      "name": "candidates",
      "outputs": [
        {
          "internalType": "uint256",
          "name": "id",
          "type": "uint256"
        },
        {
          "internalType": "string",
          "name": "name",
          "type": "string"
        },
        {
          "internalType": "uint256",
          "name": "countRank1",
          "type": "uint256"
        },
        {
          "internalType": "uint256",
          "name": "countRank2",
          "type": "uint256"
        },
        {
          "internalType": "uint256",
          "name": "countRank3",
          "type": "uint256"
        },
        {
          "internalType": "uint256",
          "name": "countRank4",
          "type": "uint256"
        }
      ],
      "payable": false,
      "stateMutability": "view",
      "type": "function"
    },
    {
      "constant": true,
      "inputs": [],
      "name": "candidatesCount",
      "outputs": [
        {
          "internalType": "uint256",
          "name": "",
          "type": "uint256"
        }
      ],
      "payable": false,
      "stateMutability": "view",
      "type": "function"
    },
    {
      "constant": true,
      "inputs": [
        {
          "internalType": "address",
          "name": "",
          "type": "address"
        }
      ],
      "name": "voters",
      "outputs": [
        {
          "internalType": "bool",
          "name": "",
          "type": "bool"
        }
      ],
      "payable": false,
      "stateMutability": "view",
      "type": "function"
    },
    {
      "constant": false,
      "inputs": [
        {
          "internalType": "uint256",
          "name": "_rank1",
          "type": "uint256"
        },
        {
          "internalType": "uint256",
          "name": "_rank2",
          "type": "uint256"
        },
        {
          "internalType": "uint256",
          "name": "_rank3",
          "type": "uint256"
        },
        {
          "internalType": "uint256",
          "name": "_rank4",
          "type": "uint256"
        }
      ],
      "name": "vote",
      "outputs": [],
      "payable": false,
      "stateMutability": "nonpayable",
      "type": "function"
    }
  ],
  "bytecode": "0x608060405234801561001057600080fd5b506100556040518060400160405280600b81526020017f43616e646964617465203100000000000000000000000000000000000000000081525061012660201b60201c565b6100996040518060400160405280600b81526020017f43616e646964617465203200000000000000000000000000000000000000000081525061012660201b60201c565b6100dd6040518060400160405280600b81526020017f43616e646964617465203300000000000000000000000000000000000000000081525061012660201b60201c565b6101216040518060400160405280600b81526020017f43616e646964617465203400000000000000000000000000000000000000000081525061012660201b60201c565b61027a565b6002600081548092919060010191905055506040518060c00160405280600254815260200182815260200160008152602001600081526020016000815260200160008152506001600060025481526020019081526020016000206000820151816000015560208201518160010190805190602001906101a69291906101d5565b5060408201518160020155606082015181600301556080820151816004015560a0820151816005015590505050565b828054600181600116156101000203166002900490600052602060002090601f016020900481019282601f1061021657805160ff1916838001178555610244565b82800160010185558215610244579182015b82811115610243578251825591602001919060010190610228565b5b5090506102519190610255565b5090565b61027791905b8082111561027357600081600090555060010161025b565b5090565b90565b610488806102896000396000f3fe608060405234801561001057600080fd5b506004361061004c5760003560e01c80632d35a8a2146100515780633477ee2e1461006f57806368c9e38814610139578063a3ec138d14610185575b600080fd5b6100596101e1565b6040518082815260200191505060405180910390f35b61009b6004803603602081101561008557600080fd5b81019080803590602001909291905050506101e7565b6040518087815260200180602001868152602001858152602001848152602001838152602001828103825287818151815260200191508051906020019080838360005b838110156100f95780820151818401526020810190506100de565b50505050905090810190601f1680156101265780820380516001836020036101000a031916815260200191505b5097505050505050505060405180910390f35b6101836004803603608081101561014f57600080fd5b81019080803590602001909291908035906020019092919080359060200190929190803590602001909291905050506102bb565b005b6101c76004803603602081101561019b57600080fd5b81019080803573ffffffffffffffffffffffffffffffffffffffff169060200190929190505050610433565b604051808215151515815260200191505060405180910390f35b60025481565b6001602052806000526040600020600091509050806000015490806001018054600181600116156101000203166002900480601f0160208091040260200160405190810160405280929190818152602001828054600181600116156101000203166002900480156102995780601f1061026e57610100808354040283529160200191610299565b820191906000526020600020905b81548152906001019060200180831161027c57829003601f168201915b5050505050908060020154908060030154908060040154908060050154905086565b6000803373ffffffffffffffffffffffffffffffffffffffff1673ffffffffffffffffffffffffffffffffffffffff16815260200190815260200160002060009054906101000a900460ff161561031157600080fd5b60016000803373ffffffffffffffffffffffffffffffffffffffff1673ffffffffffffffffffffffffffffffffffffffff16815260200190815260200160002060006101000a81548160ff0219169083151502179055506001600085815260200190815260200160002060020160008154809291906001019190505550600160008481526020019081526020016000206003016000815480929190600101919050555060016000838152602001908152602001600020600401600081548092919060010191905055506001600082815260200190815260200160002060050160008154809291906001019190505550837ffff3c900d938d21d0990d786e819f29b8d05c1ef587b462b939609625b684b1660405160405180910390a250505050565b60006020528060005260406000206000915054906101000a900460ff168156fea265627a7a723158204c367d73bb02cd8d3c90ba3a94ca787bd5a7e49ca48fbce00528ad554854298664736f6c63430005100032",
  "source": "pragma solidity ^0.5.0;\n\ncontract Election {\n    // Model a Candidate\n    struct Candidate {\n        uint id;\n        string name;\n        uint countRank1;\n        uint countRank2;\n        uint countRank3;\n        uint countRank4;\n    }\n\n    // Store accounts that have voted\n    mapping(address => bool) public voters;\n    // Store Candidates\n    // Fetch Candidate\n    mapping(uint => Candidate) public candidates;\n    // Store Candidates Count\n    uint public candidatesCount;\n\n    // voted event\n    event votedEvent (\n        uint indexed _candidateId\n    );\n\n\n    function addCandidate (string memory _name) private {\n        candidatesCount ++;\n        candidates[candidatesCount] = Candidate(candidatesCount, _name,0,0,0,0);\n    }\n\n    function vote (uint _rank1,uint _rank2,uint _rank3,uint _rank4) public {\n        // require that they haven't voted before\n        require(!voters[msg.sender]);\n\n        // record that voter has voted\n        voters[msg.sender] = true;\n\n        // update candidate vote Count\n        candidates[_rank1].countRank1 ++;\n        candidates[_rank2].countRank2 ++;\n        candidates[_rank3].countRank3 ++;\n        candidates[_rank4].countRank4 ++;\n\n        // trigger voted event\n        emit votedEvent(_rank1);\n    }\n    constructor () public {\n        addCandidate(\"Candidate 1\");\n        addCandidate(\"Candidate 2\");\n        addCandidate(\"Candidate 3\");\n        addCandidate(\"Candidate 4\");\n    }\n}\n",
  "sourcePath": "/Users/ayser/Desktop/Courses- FULL/APS 1050 - Blockchain Technologies/election_dapp/contracts/Election.sol",
  "compiler": {
    "name": "solc",
    "version": "0.5.16+commit.9c3226ce.Emscripten.clang"
  },
  "schemaVersion": "3.3.4",
  "updatedAt": "2021-04-20T05:13:28.170Z",
  "networkType": "ethereum",
  "devdoc": {
    "methods": {}
  },
  "userdoc": {
    "methods": {}
  }
}